:020000040FFFEC
:1080000003000200A82823BDA82823BDA82823BD5B
:10801000A82823BDA82823BDA82823BDA82823BDA0
:10802000A82823BDFFFFFFFF12000000A82823BDE2
:10803000A82823BDA82823BDA82823BDFFFFFFFF34
:1080400000D01F0E04000000040000000200000029
:1080500002000000A82823BDA82823BDA82823BD0E
:10806000A82823BDA82823BDFFFFFFFF0000040EA2
:1080700000040000A82823BDA82823BDA82823BDEC
:10808000A82823BDA82823BDA82823BDA82823BD30
:10809000A82823BDA82823BDA82823BDA82823BD20
:1080A000A82823BDA82823BDA82823BDA82823BD10
:1080B000A82823BDA82823BDA82823BDA82823BD00
:1080C000A82823BDA82823BDA82823BDA82823BDF0
:1080D000A82823BDA82823BDA82823BDA82823BDE0
:1080E000A82823BDFFFFFFFF030000004800030E88
:1080F0000CD01F0E0021040EA82823BDA82823BDE4
:10810000A82823BDA82823BDA82823BDA82823BDAF
:10811000A82823BDA82823BDA82823BDA82823BD9F
:10812000A82823BDA82823BDA82823BDA82823BD8F
:10813000A82823BDA82823BDA82823BDA82823BD7F
:10814000A82823BDA82823BDA82823BDA82823BD6F
:10815000A82823BDA82823BDA82823BDA82823BD5F
:10816000A82823BDA82823BDA82823BDA82823BD4F
:10817000A82823BDA82823BDA82823BDA82823BD3F
:10818000A82823BDA82823BDA82823BDA82823BD2F
:10819000A82823BDA82823BDA82823BDA82823BD1F
:1081A000A82823BDA82823BDA82823BDA82823BD0F
:1081B000A82823BDA82823BDA82823BDA82823BDFF
:1081C000A82823BDA82823BDA82823BDA82823BDEF
:1081D000A82823BDA82823BDA82823BDA82823BDDF
:1081E000A82823BDA82823BDA82823BDA82823BDCF
:1081F000A82823BDA82823BD7FC730177FC7301705
:10820000A82823BDA82823BDA82823BDA82823BDAE
:10821000A82823BDA82823BDA82823BDA82823BD9E
:10822000A82823BDA82823BDA82823BDA82823BD8E
:10823000A82823BDA82823BDA82823BDA82823BD7E
:00000001FF
