:020000040E03E9
:100000002822002F712C030E3B76030E5D2C030E6D
:100010005D2C030E5D2C030E5D2C030E5D2C030E78
:10002000000000000000000000000000412D030E51
:100030005D2C030E00000000E92E030E5D2C030E64
:10004000692F030E692F030E692F030E692F030E0C
:10005000692F030E692F030E692F030E692F030EFC
:10006000692F030E692F030E692F030E692F030EEC
:10007000692F030E692F030E692F030E692F030EDC
:10079C0053B94AB9002908BF00281CBF4FF0FF31DC
:1007AC004FF0FF3000F00CB8ADF1080C6DE904CE41
:1007BC0000F018F8DDF804E0DDE9022304B070471E
:1007CC00704700BF034611F8012B03F8012B002AD8
:1007DC00F9D17047034613F8012B002AFBD1181AE4
:1007EC00013870472DE9F0478C468E46089E154619
:1007FC0004461946002B40F0D080724547D9B2FA16
:10080C0082F74FB1C7F120030EFA07FCBD40BC4084
:10081C0020FA03F343EA0C0C4FEA154EA8B2230C52
:10082C00BCFBFEF80EFB18CC08FB00F943EA0C43AA
:10083C00994528D9EB1808F1FF3204D2994502D911
:10084C00A8F102022B44A3EB0903A4B2B3FBFEFCF8
:10085C000EFB1C330CFB00F044EA0344A04214D9F9
:10086C002C190CF1FF3304D2A04202D9ACF10203D3
:10087C002C44241A43EA02401EB1FC40002334608D
:10088C007360BDE8F0874246DDE76346F1E7002A76
:10089C0079D0B2FA82F3002B3FD01946C1F1200374
:1008AC0002FA01F500FA01F42EFA03F20EFA01FE37
:1008BC0020FA03F3AFB243EA0E034FEA154EB2FB34
:1008CC00FEFC0EFB1C201A0C0CFB07F842EA004243
:1008DC0090455AD9AA180CF1FF3004D2904502D990
:1008EC00ACF102002A44A2EB08029BB2B2FBFEFC64
:1008FC000EFB1C220CFB07F743EA02439F4246D92E
:10090C00EB180CF1FF3204D29F4202D9ACF1020277
:10091C002B44DB1B42EA004202E0AEEB0203012255
:10092C004FEA154EAFB2200CB3FBFEFC0EFB1C3392
:10093C000CFB07F840EA034398452AD9EB180CF155
:10094C00FF3004D2984502D9ACF102002B44A3EB42
:10095C000803A4B2B3FBFEFC0EFB1C330CFB07F725
:10096C0044EA0344A74216D92C190CF1FF3304D2E4
:10097C00A74202D9ACF102032C44E41B43EA004029
:10098C000F46114678E71F2188E76046ABE76246C1
:10099C00BFE76046DBE76346EFE7734506D916B958
:1009AC00002108466DE7C6E9000EF9E7B3FA83F7B4
:1009BC0087B9734501D3824207D8841A6EEB0303BF
:1009CC0001209C461EB900215BE73846FAE7C6E9D0
:1009DC00004CF8E7C7F1200CBB4000FA07F422FAF0
:1009EC000CF520FA0CF1BA401D432EFA0CF30EFA5A
:1009FC0007FE4FEA154941EA0E011FFA85FEB3FBCB
:100A0C00F9F809FB18300B0C08FB0EFA43EA00430B
:100A1C009A4540D9EB1808F1FF3004D29A4502D917
:100A2C00A8F102002B44A3EB0A0389B2B3FBF9F83B
:100A3C0009FB183308FB0EFE41EA03418E452CD905
:100A4C00691808F1FF3304D28E4502D9A8F10203CC
:100A5C00294443EA0040A1EB0E01A0FB029841455A
:100A6C00CE46434602D306D14C4504D20138B9EBED
:100A7C00020E68EB0503002EA5D0B4EB0E0261EB61
:100A8C00030101FA0CFC22FA07F3F9404CEA0303C8
:100A9C00C6E9003197E74046C5E74346D9E7000071
:100AAC0008B50021014807F092FCFAE7366E010008
:100ABC004FF400534FF400722DE9F04389B0CDE9A7
:100ACC000432A34BA34C0293002303221846CDE916
:100ADC000033A149039405F03AFEDFF88082A04F61
:100AEC00A04E102300250322CDE9003528462346CD
:100AFC00CDE902789849103405F029FEB442F0D1C2
:100B0C00994F9A4B3A689A420AD0994BCDE90153C6
:100B1C000023012218469049009505F018FEBDE00F
:100B2C00284607A906F0C9FF044658B1914B03901B
:100B3C00CDE901530023012218468749009505F0A1
:100B4C0006FE14E0079E0136314606F0A1FF079B16
:100B5C00044680B10393884BCDE90460CDE9015381
:100B6C0001222B4628467C49009505F0F0FD2046D5
:100B7C0009B0BDE8F083CDE90336804B0322CDE903
:100B8C00010375490346009005F0E1FD079BCBB9C5
:100B9C0000F026F9034650B9794A6F49CDE90102B4
:100BAC000322009005F0D3FD012000F00FFB754BE4
:100BBC000390CDE901430322234620466649009465
:100BCC0005F0C5FD97F87D70052F69D800256E4B93
:100BDC00032253F82730284603936C4BCDE900557C
:100BEC0002935D492B4605F0B2FD052E71D9062303
:100BFC000393674B03220293002357491846CDE910
:100C0C00003305F0A4FD634FDFF88C810025CDE99E
:100C1C0002742B4603222846CDE900554E49013477
:100C2C0005F095FD08FB04F3B3F1333F2FD85B4B74
:100C3C0003222846CDE9015347492B46009505F080
:100C4C0086FD574E574BDFF860910322CDE90153D7
:100C5C0028462B46CDE903693F49009505F077FD01
:100C6C00524A3368D2F8FC2F56F8041B4E4585EADD
:100C7C000105F9D103934E4BCDE9042502930023D2
:100C8C0003221846CDE90033334905F060FD0021FD
:100C9C00484807F09CFB484B9C42B7D1FFF700FF3C
:100CAC00464B0222029300232B491846CDE9003310
:100CBC00039705F04CFD052E99D8414B0122029368
:100CCC00002325491846CDE90033039705F03FFD75
:100CDC00E4E7052FF1D801A353F827F0010D030E1B
:100CEC00230D030E550D030E430D030EC70C030EFF
:100CFC00590D030E334B0322CDE901530023164942
:100D0C001846009505F023FD002006F0F1FE2E4B51
:100D1C00044603900CE72D4B0322CDE9015300232D
:100D2C000D491846009505F012FD06F0F4FE284B0F
:100D3C0004460390FCE6274B0322CDE90153002324
:100D4C000549184600952DE7234BDFE6234BDDE6DE
:100D5C00A89D030E0000040ED099030EEF9D030E08
:100D6C00ED9E030E0002040E00FD882F6F54694D9A
:100D7C00FA9D030E1A9E030E389E030E669E030EFA
:100D8C007B9E030EB59E030E389A030EDC9E030E5B
:100D9C00F09E030E4B9F030ECDCCCCCC589F030E74
:100DAC000020040E7B9F030E0020080E0010080E7E
:100DBC00AF9F030E366E0100A0860100299F030E23
:100DCC00DEA0030EF29F030E0EA0030E39A0030E3D
:100DDC0056A0030E82A0030EA9A0030EC1A0030E01
:100DEC0030B50E4C0E4BA26885B09A420D4B01D01B
:100DFC001A787AB101221A7094E80F008DE80F006E
:100E0C004FF0FF3302939DE80F0084E80F000020A1
:100E1C0005B030BD4FF0FF30FAE700BF0080FF0F88
:100E2C00A82823BDD009002F2DE9F04F91B00093D5
:100E3C0002F004030293C2F3C20301338407054694
:100E4C000E46DDF868A00392059340F09C81041DCA
:100E5C00002849D101F00706341DC6F10806009B95
:100E6C0000274FF004085A1E4FF0FF33B946019388
:100E7C00BB46434604970DB10099216005980028A4
:100E8C0000F3D6808F480099814203D38E4881426B
:100E9C00C0F0CE800399601B11F0020C40F0D6809C
:100EAC00B9F10F0F00F2CF80002D00F0D68009F1C0
:100EBC0040010DEB010E0199C0F387000EF8200CD8
:100ECC000EF8101CBCF1000F00F0C38060F07F0026
:100EDC000EF8200C013709F10109C5F108014FF694
:100EEC00DA7E043406918CE00729B8D86FF01B0029
:100EFC0011B0BDE8F08F7A285BD84B280FD8472863
:100F0C0057D829282ED8252850D052D8202818BF99
:100F1C0023280CBF4FF0010B4FF0000B71E04C3845
:100F2C002E2846D8DFE800F06D454545454545453A
:100F3C00454545454845454545454545455645483E
:100F4C00485656566D486A456D4518481845457FB4
:100F5C007C48454548457C0000204FF0000B4FF085
:100F6C00040835E001212A38C0B201FA00F010EA79
:100F7C000E0F46D110F0625C2CD110EA010B40D060
:100F8C006046013C4444B4FBF8F408FB04F425B17E
:100F9C00A3EB050CA444B445A8D8002870D005993F
:100FAC00013905915AF8041B009164E70199013944
:100FBC0001914FF0000B24E012F8010C6C2834D195
:100FCC00002012F8023C83466C2BC8D14FF0080865
:100FDC004346D6E70AF1070A2AF0070A073424F039
:100FEC000704FAE802BC35B106982044B0423FF63B
:100FFC007DAFC4E900BC4FF0000B08344FF008087B
:10100C00434612F8010F002853D0BBF1000F7FF4B8
:10101C0072AF2528F5D14FF0010B019B01330193E1
:10102C004FF00408ECE7584697E700208346A8E702
:10103C00039988077FF551AF4FF0010C601BB0F599
:10104C00007FFFF42DAF6FF0150051E74FF0000C4F
:10105C00F5E70498013004903DE7BCF1000F01D096
:10106C00013638E70298023600287FF434AF009836
:10107C00CDE90632FFF7AEFBDDE9063206442AE77E
:10108C00042B08D10AF1040015B1DAF80010216024
:10109C0082460434B5E70AF1070323F0070303F192
:1010AC00080A1DB1D3E90001C4E900010823083482
:1010BC00A7E7631BB3F5806FC5D23DB9A6F1080451
:1010CC00E01815E7D887030EC0AD030E029A9B08F3
:1010DC0028602B709DF81030AAB1EB70AF702FB157
:1010EC00002208A8C5F1010C91450ED14FF0000A61
:1010FC00C5F101030DF1200801930DF1300BD14521
:10110C0012D1601BF4E66B70E8E710F8013B19068E
:10111C0008D50CEB040EB64503F07F033FF6E6AEA4
:10112C0004F8013B0132DFE71FB198F90020002AD7
:10113C0017DB029BD3B11AF80B2004F8012B002209
:10114C00019B18191044B0423FF6D0AE98F800003D
:10115C00009904F8010B2046039207F099FA039AC0
:10116C0014440AF1010A08F10108C8E798F80020B4
:10117C0055F822300093029B009845F82230FFF777
:10118C0029FB421CDCE76FF00D00B1E6014B186047
:10119C00704700BF4800002F80B505460E46174625
:1011AC00984604F0E7FD034601F0EAFE0446DFF83A
:1011BC001890424649F8003039463046A84754F852
:1011CC00090001F075FE00BF08000000044608B5D8
:1011DC00EFF31183202383F31288BFF36F8F06F094
:1011EC0044FC204602F0A4F9024805F0D5FB06F0B9
:1011FC0047FAFCE780A1030E1FB5034660B9114AFC
:10120C000090CDE901021049012205F0E0FD6FF0DC
:10121C00150005B05DF804FB83685BB90B4A1846F2
:10122C00CDE9013208490122009305F0D0FD6FF0A1
:10123C000400EEE71B681BB105B05DF804EB184722
:10124C001846E6E7B4A1030E9099030EC5A1030E50
:10125C0030B585B008B101B16AB9134B01220293C4
:10126C00002312491846CDE9003305F0B0FD6FF0AC
:10127C00150005B030BD84680CB1256965B90C4BFF
:10128C0001220293002309491846CDE9003305F0E9
:10129C009EFD6FF00400ECE741F8040B236905B0E8
:1012AC00BDE83040184700BFE3A1030E9099030E30
:1012BC00C5A1030E30B51346044685B060B9194B71
:1012CC000090CDE9010301220346174905F07FFD8B
:1012DC006FF0150005B030BD006858B9134B009085
:1012EC00CDE90103012203460F4905F070FD6FF0B3
:1012FC000100EFE782680AB1956865B90C4B0122D1
:10130C000293002308491846CDE9003305F05FFD30
:10131C006FF00400DEE70A46AC46616805B0BDE834
:10132C00304060470FA2030E9099030E20A2030ECB
:10133C00C5A1030E70B504464568066906F0E3FEC8
:10134C0038B123462846311D034ABDE8704000F0F1
:10135C007BBD6FF00A0070BDC49A030E2DE9F043FB
:10136C009846836804468B42174685B00DD81D4BB2
:10137C000293002301221846CDE900331A4905F0E7
:10138C0061FD002005B0BDE8F0834368D0F8009003
:10139C0003FB01F609EB06050AB3B8F1000F05D003
:1013AC000421284602F070F9BFF35B8FD4E90130B9
:1013BC005843226859F8061002440438884203D373
:1013CC000B1D2B449A4201D2084BD1E73960B8F17E
:1013DC00000F04D0281D02F057F9BFF35B8F281DB6
:1013EC00D0E700BF4EA2030E8899030E62A2030E33
:1013FC0030B5046843680C1BB4FBF3F40D4685B0A0
:10140C0000232146FFF7AAFF08B185420DD0084BF7
:10141C0001220293002307491846CDE9003305F059
:10142C0011FD6FF0150005B030BD2046FBE700BF85
:10143C0072A2030E8899030E2DE9F04F824689B0F3
:10144C00129B5AF8686B0C680493736A03341C443F
:10145C0081460F46B4FBF3F44FF00008DDF84CB0B6
:10146C0005922146F06A06AA05F0C1FB10F11C0F8B
:10147C0005460DD1049B53EA0B0352D05B465046F4
:10148C00049A04F051F8051E47DB4FF00108E8E719
:10149C00B8F1000F03D009F1680004F011F8002D29
:1014AC001ADA15F11C0F05D16FF00B05284609B09F
:1014BC00BDE8F08F15F10B0FF8D01C4B01220293F5
:1014CC0000231B491846CDE90033039505F0BAFCFF
:1014DC0015F1160FE8D0E9E73B687BB9069C07933A
:1014EC00B36A0134A34207D92146F06A07AA05F072
:1014FC0057FB079B002BF3D0069BE41A736A069AE2
:10150C006343043B3B60716A306A4A4383508118E1
:10151C00059B0431069D1960C8E7B8F1000FC0D0D7
:10152C00B9E7B8F1000FB6D1BEE700BF82A2030E37
:10153C008899030E70B5054686B0044655F8446B81
:10154C008DF814108DF815208DF816304FF0FF32F1
:10155C004FF0FF33284603F0F1FE211D032305AAAB
:10156C00304605F08DFD0446284605F096FC022C0D
:10157C000AD8074B01220293002306491846CDE9ED
:10158C000033039405F05EFC204606B070BD00BF2E
:10159C00A5A2030E8899030E002370B586B0CDE981
:1015AC0004331C4E1C4B456803933378046973B9A0
:1015BC001A4806F08DFE03AB00934FF400724FF007
:1015CC00FF331749154804F0DDF80123337025600B
:1015DC006B692A6A93422CBF0023012384F8C8301C
:1015EC0004F1440006F0E1FD0E4904F1580006F048
:1015FC0034FE0122002104F1680006F0DDFD4FF0FD
:10160C00FF330020C4F8BC30C4F8C030C4F8B83084
:10161C0006B070BDD109002FC4A2030EA003002F89
:10162C00E809002FF917030EF0B507680646786A2B
:10163C0003320244002B0D4687B0B2FBF0F12DDBD8
:10164C00DC1C0444B4FBF0F4A14210D2174BCDE9DE
:10165C0003410293002301221846CDE900331449BB
:10166C0005F0F0FB6FF01504204607B0F0BD6843A1
:10167C003A6A091B13502A19B1B1F86A05F01DFB1F
:10168C00041E0DDA0B4B0122029300230849184665
:10169C00CDE90033039405F0D5FBE5E72A46EBE7EB
:1016AC0006F1680003F00CFF2C46DDE7D1A2030E17
:1016BC008899030EF3A2030E30B50446006887B078
:1016CC00002305AA20300D46FFF748FE034648B11B
:1016DC004FF0FF3329462046059A07B0BDE830404D
:1016EC00FFF7A2BF064A0090CDE90102054901228D
:1016FC00039505F0A7FB6FF0150007B030BD00BFD8
:10170C000CA3030E8899030E016901F1C403D3E8FD
:10171C00EF0F40F00040C3E8E20F002AF7D1024877
:10172C00583106F0B6BD00BFA003002F7FB50024D2
:10173C00036903F1780520012E58964212D102213B
:10174C001A188032D2E8EF0F012803D1C2E8E41F47
:10175C00002CF7D140D1224803F1580106F099FD35
:10176C0000201CE00134042CE5D103F1C400D0E8C6
:10177C00EF4F651CC0E8E65F002EF8D14FF6FC7009
:10178C000442A5B20DD0174B012202930023164937
:10179C001846CDE9003305F055FB6FF00B0004B093
:1017AC0070BD280100F178061844826793F8C820B0
:1017BC001E4432B1EAB253FA84F480F8842084F8DF
:1017CC00B82000F17C020120D2E8EF4FC2E8E50F0F
:1017DC00002DF9D10E60BEE76FF01500DFE700BFFA
:1017EC00A003002F2CA3030E8899030E2DE9F04FB4
:1017FC0004468BB000F16C03D3E8AF3F002B64DAE6
:10180C0090F87050A0F158030593002D60D04FF064
:10181C00FF384FF0FF39DFF8E0B100F1240500F19B
:10182C00640A0227D5E8EF3F012B03D1C5E8E27F1C
:10183C00002AF7D130D155F8043C1868FEF7CAFFDE
:10184C00CDE90089461C09AA059808A90896FFF756
:10185C00F3FD031E0FDB55F8042C09981168069351
:10186C00FEF7B0FF0096069B39462A7A059805F0DC
:10187C0054FB031E10DA0022D5E8EF1FC5E8E02F59
:10188C000028F9D1CDE902B31346CDE90022184660
:10189C0001225A4905F0D6FA10355545C1D100261A
:1018AC0004F128056834D5E8EF3F022B03D1C5E8D5
:1018BC00E26F002AF7D105D155F8082C93680BB1CB
:1018CC00906998471035A542EDD10BB0BDE8F08F6B
:1018DC00A0F114084FF0FF334FF0FF32404603F0F5
:1018EC002DFD04F1600304F1620906934FF6FF72BB
:1018FC0039F8023F934266D0404605F0CEFA54F8D0
:10190C00583CB9F80060D3E90512DB6902FB0616F6
:10191C0003FB02110436891B3046013906F0EFFE39
:10192C000027421C04F1240BDBE8AFAFBAF1010F26
:10193C002AD15BF8043C31461868079206F0CDFEBC
:10194C00079A08BB04EB0712EBB282F82C30069A0C
:10195C0057550322DBE8EF1F012904D1CBE8EC2F0C
:10196C00BCF1000FF6D10CBF0122002232D0244B67
:10197C000092CDE90123214913460395524605F007
:10198C0061FA6FF0150605E00137042F0BF1100B0F
:10199C00CAD100264FF0FF324FF0FF33404603F020
:1019AC00CDFC002E0FD04FF6FF73A9F800300ADAE9
:1019BC00144B01220293002310491846CDE9003341
:1019CC00039605F03FFA0135042D8FD1404605F002
:1019DC0064FA64E704EB0717396A8A681AB18869F4
:1019EC0007939047079B31460322059805F057FA59
:1019FC00061EA8BF0126CDE73FA3030E8899030E50
:101A0C005CA3030E8BA3030E70B5431893F8B85068
:101A1C0086B0032D0CD9224B039102930023012293
:101A2C001846CDE900331F4905F00CFA002411E0EB
:101A3C002B0103F1780403F17C0104440144D1E847
:101A4C00AF2FD2B2032A08D103448033D3E8AF3F7F
:101A5C00002BEBD1204606B070BD022A0ED103221A
:101A6C00D1E8EF5FC1E8E62F002EF9D103449A6F5D
:101A7C009368002BEED090699847EBE700EB0510CC
:101A8C0090F884300749CDE90323074B01220293D8
:101A9C0000231846CDE9003305F0D4F9C6E700BFA2
:101AAC00A0A3030E8899030EC2A3030E2DE9F043E5
:101ABC00022989B01FD94578032D1CD803781469E5
:101ACC00032B09D8DFE803F05102250B817820465F
:101ADC00FFF7F2FD002810DB09B0BDE8F083817838
:101AEC002046FFF7E9FD002807DB29462046FFF7D3
:101AFC008BFF0028F0D16FF01500394B0390029347
:101B0C00002301221846CDE90033364905F09AF935
:101B1C00E2E7867820680123314607AA1430FFF7E4
:101B2C001DFC034648B9304A2E49CDE90102039603
:101B3C000122009005F086F9DDE704F144074FF02F
:101B4C00FF324FF0FF33384604EB450503F0F6FB4C
:101B5C003846A5F8BC6005F0A0F9244804F15801FA
:101B6C0009B0BDE8F04306F094BB8778D4F8009038
:101B7C000123394606AA09F11400FFF7EFFB2946A9
:101B8C0006462046FFF740FF804606B160B9184B69
:101B9C00012202930023CDE903751846CDE90033E9
:101BAC00104905F04FF9A6E73946D9F8300004F092
:101BBC00B6FFD8F8003030469A691D690699A847D7
:101BCC003946D9F8300007AA04F0C9FF079B002B4F
:101BDC0082D101223146204605F061F97CE700BF35
:101BEC0017A4030E8899030E0CA3030EA003002F59
:101BFC00ECA3030E10B50024084B86B0039303AB83
:101C0C0000934FF4A0624FF0FF3305490548CDE92E
:101C1C00044403F0B7FD204606B010BD44A4030EE7
:101C2C00E80B002F4804002F10B50446006805F09F
:101C3C0093FA00280BDB0D220549206805F0BAFA4F
:101C4C00002804DB0D28B4BF6FF01500002010BD78
:101C5C008EAD030E024802F1280106F01ABB00BF3C
:101C6C004804002F2DE9F0410446A2B000F1140500
:101C7C00D5E8AF6F731E052B26D8DFE803F0713261
:101C8C000325717150F8240C0DF1060202A905F020
:101C9C0005FB30BBBDF806200D2A22D167490298FE
:101CAC0006F00BFDE8B9A4F12800FFF7BDFF70B1F9
:101CBC0054F80C3CDB681BB154F8081C604898477E
:101CCC000021284605F095F922B0BDE8F0810121EC
:101CDC00284605F08EF9012554F8040C05F091F90D
:101CEC0082E054F8280C05F08CFB228A83B29342D4
:101CFC0006464FEA104731D0EBB154F8280C05F0EA
:101D0C002BFA00280EDA54F80C3CDB681BB154F8A3
:101D1C00081C4B4898470421284622B0BDE8F041E6
:101D2C0005F067B9618A54F8240C268241EA064111
:101D3C0005F072FB0123628A974279D1228A002A2C
:101D4C0076D00621284605F054F954F80C3C1B6853
:101D5C00002BC0D054F8080C9847BCE70023EAE7E6
:101D6C00002250F8240C114605F0D1FA471E7F2FA3
:101D7C001DD8802254F8240C02A905F0C8FA062EAE
:101D8C0080463BD154F8280C05F03BFB238A80B2EB
:101D9C00984211D00421284605F02BF954F80C3C3C
:101DAC005B68002B90D054F8080C98478CE7062EF3
:101DBC008AD14FF00008E5E77F2F85D854F80C3C0A
:101DCC009B6823B1414654F8082C02A8984700267A
:101DDC00002254F8240C114605F099FA051E18BF80
:101DEC000125002E7FF478AF002D3FF46DAF214616
:101DFC00144822B0BDE8F04106F04BBA012EDDD1FB
:101E0C000C287FF661AF0D220C4802A906F055FC98
:101E1C0000287FF459AF0521284605F0EAF854F85C
:101E2C000C3C1B6813B154F8080C98470126CFE7FB
:101E3C00002B3FF449AF00254EE700BF8EAD030EDB
:101E4C0050A4030E4804002F2DE9F8430D46017CE5
:101E5C000746012991461C4605F13C060DD1D6E8F2
:101E6C00EF3F002B03D1C6E8E21F002AF7D135D093
:101E7C006FF077042046BDE8F883304605F0B9F8DA
:101E8C005FFA80F8C5E907946F6205F1080006F067
:101E9C008CF9686805F082F9041E28DB3B7C012B69
:101EAC001FD0286805F0ADFA040C286805F0A9FAD3
:101EBC00002381B22B87013189B2A142FBD00029CA
:101ECC00F9D06868698705F0A7FAB8F1000F13D04C
:101EDC00384605F096F8041ECCDA08E04FF00008FE
:101EEC00D0E72846FFF7A0FE04460028EDD00021DD
:101EFC00304605F07EF8BDE70F4905F1280006F0E5
:101F0C00ACF9D7E9020183685C6814B96FF0570427
:101F1C00EDE72B46094AA04704460028E7D1D7E94C
:101F2C00020183681B69002BF0D0012298470446FC
:101F3C000028CDD0DBE700BF711C030E611C030E23
:101F4C002DE9F84F814632480F4605F071FA0646E6
:101F5C0000284FD0BDE8F88F237B8BB12368DB685A
:101F6C000BB120469847636883F806A023681B6969
:101F7C00002B37D1636804222046196805F079FAE2
:101F8C00013610345C45E7D3B9F1000FE2D04FF0C5
:101F9C00010A002DDED0A94695FAA5F4B4FA84F412
:101FAC000AFA04F3260108EB04146FEA030B25EA82
:101FBC000305237B63B158F806301B6913BB4644F9
:101FCC00736804222046196809EA0B0905F051FAD6
:101FDC00002DE1D127B140F23910002106F0F7F9BC
:101FEC004D46D6E7204698470028C3D00AFA06F398
:101FFC001D43C5E7074C0546A0464FF0010ADFF824
:10200C0018B0BFE7204698470028E1D1D7E700BFBA
:10201C008807002FF099030E009A030E014B53F81A
:10202C0020007047689B030E08B5034608462BB189
:10203C00044A136000F048FA002008BD6FF0150048
:10204C00FBE700BFA001002F00230C4A10B5137052
:10205C000B4A0C4913600C4A0C481360FFF7E4FF61
:10206C000B4B0C4918468B4200D310BD1A1A5C68F6
:10207C001211013222711033F5E700BFD209002F83
:10208C008007002F40420F008407002F3974030E85
:10209C00F099030E009A030E70B50B4D297841B9D7
:1020AC000120FFF74DFF094C094EB44202D3012326
:1020BC002B7070BD63685B791BB1236820469B68ED
:1020CC0098471034F1E700BFD209002FF099030EA6
:1020DC00009A030E10B50446064805F0A9F93CB168
:1020EC00054BD3E8EF1F0139C3E8E21F002AF8D1F2
:1020FC0010BD00BF8007002F8407002F70B50A4B5E
:10210C0005461B689847094C094EA860B44200D399
:10211C0070BD63685B7923B12368294620461B6830
:10212C0098471034F2E700BFA001002FF099030E7E
:10213C00009A030E044A054B9B1AB1EBD30F34BF24
:10214C0052F83100002070477099030EF099030E7D
:10215C002DE9F04F87B004AF0546D7E90EBA884693
:10216C00144699463E6BBBF1000F1ED0C7F804A075
:10217C00CDF800A010215B4600207A6BFEF754FED0
:10218C00B0F5006F014612D340F2FF7303931A4B64
:10219C0002220293002319491846CDE9003305F0B9
:1021AC008AF90C37BD46BDE8F08F5946584604F005
:1021BC00070205F00704E40044EA821444EA4024D0
:1021CC0044EA065417360E4426F00706ADEB060D0E
:1021DC0004ADBBF1000F07D0CDF800A05B467A6BC5
:1021EC0005F11000FEF720FE4B46224641462846DC
:1021FC0005F048F9D5E700BF78A4030E9899030EB3
:10220C00406820B1034BC01A40F3CF0070474FF029
:10221C00FF3070477099030E0EB403B503AB53F83F
:10222C00042B01460448019301F0ECF802B05DF870
:10223C0004EB03B0704700BFFF74030ECA0605D44D
:10224C008B064CBF02490349FFF7E6BF704700BF3E
:10225C00B1A4030EB0A4030E2DE9F04F87B09DF886
:10226C00489004460D469846DDF850A0169F0492FF
:10227C00B9F1000F00F0B08007F48073059305F0FE
:10228C00F6F807F0020B0246002874D020467A4973
:10229C00FFF7C2FF0646BBF1000F08D017F0440F42
:1022AC006BD12A4620467549FFF7B6FF064407F066
:1022BC00010353B1724B204653F82920714B7249DC
:1022CC00002A08BF1A46FFF7A7FF07F48073002BFC
:1022DC0007F0080318BF4FF00008002B79D06B4BA8
:1022EC00204653F829206A49FFF796FF0546049BC0
:1022FC002BB11A4620466749FFF78EFF0544B8F10B
:10230C00000F05D0424620466349FFF785FF054480
:10231C0062483544139B1BB12246614904F009FB0A
:10232C00159B002B00F08D80DDF854803946B8F1F8
:10233C00100F204628BF4FF010080026FFF77EFF35
:10234C00B5424FDC0026334620461AF80320554987
:10235C00FFF762FF0136102E4AD0710703D12046D9
:10236C005149FFF759FFB0453346EDD820464F4948
:10237C00FFF752FFEEE706468DE74D4B1868002835
:10238C0094D04C4B4FF47A7B1B684FF03C0CB5FB54
:10239C00F3F5B5FBF0F14FF4616300FB11550BFB4A
:1023AC0005F5B1FBF3F2B5FBF0FE03FB121100FBDC
:1023BC001E55B1FBFCF30BFB05F5B5FBF0F50CFB67
:1023CC00131120460091CDE901E53B49FFF724FFAD
:1023DC006CE707F008058AE7012B4D460CBF2F4828
:1023EC00364897E720463049FFF716FF0136A7E736
:1023FC00002620463249FFF70FFF33461AF8032018
:10240C002046A2F120035F2B28BF2E222D49FFF777
:10241C0003FF0136102E0DD0720703D1204622493E
:10242C00FFF7FAFEB0453346E8D820461E49FFF7C1
:10243C00F3FEEEE7159BC244B3EB080315937FF450
:10244C0073AFB9F1000F0AD0FB0704D520460D4A33
:10245C000D49FFF7E1FE39462046FFF7EFFE6268B3
:10246C00A168D2E90023206805F035F800226368E2
:10247C001A6007B0BDE8F08FB8A4030EBCA4030E1D
:10248C00789B030EB3A4030EED9E030E8C9B030EE0
:10249C00E1A4030EE7A4030EEBA4030EFF74030EDA
:1024AC001134030EF0A4030EF8A4030EF6A4030ECD
:1024BC009007002F8C07002FC5A4030E1B75030E6D
:1024CC00FAA4030EFCA4030E00210123064A904239
:1024DC0006D8064A01B901231360054B18607047F2
:1024EC00012140085B00F2E740420F008C07002FEF
:1024FC009007002FF8B50D460446064F4618B44217
:10250C0001D12846F8BD14F8011BBB6801485B6873
:10251C009847F4E76C89030E014B03600120704768
:10252C00D49B030E08B50348034A0021121A05F088
:10253C0066F808BDA003002FE409002F074808B572
:10254C00074A0849121A05F05CF8BDE8084006482D
:10255C00064A0749121A05F054B800BF0000002FB4
:10256C00A003002FC0AD030E0000002F0000002FB1
:10257C00C0AD030E70B506460D4686B0002938D0A6
:10258C0000248B68012205934B68204604930B684A
:10259C0023490393234BCDE900440293234605F0D2
:1025AC0032F86B69012205932B6920460493EB6882
:1025BC001B4903931C4B0094CDE90143234605F0C2
:1025CC0022F8EB6901220393184B2046CDE9014315
:1025DC0013492346009405F016F8AB6901220393C6
:1025EC00134B2046CDE901430D492346009405F0D9
:1025FC000AF8012E0DD1EFF30583103B03930D4B1D
:10260C0032460293002306491846CDE9003304F004
:10261C00FAFF2946304606B0BDE8704002F036BCE1
:10262C00C099030E49A5030E78A5030EA7A5030EAA
:10263C00B6A5030EE4A5030E30BFFFF7FDBF00BF28
:10264C002DE9F04105460B4EDFF82C80324606EBA7
:10265C000807CC1B2046094906F01AF8A019424677
:10266C000021083C06F021F8AC6707F10800BDE832
:10267C00F08100BF0000000004000000009A030E6F
:10268C001FB500243E4B3F490293012223462046AE
:10269C00CDE9004404F0D2FF3B4B9B6A99016DD508
:1026AC003A4B2046CDE9014301222346354900949B
:1026BC0004F0C4FF1E20344B9B6ADA010AD5344B5C
:1026CC000122029300232F491846CDE9003304F070
:1026DC00B5FF1F202C4B9B6ADB020AD52D4B012228
:1026EC000293002327491846CDE9003304F0A6FFD6
:1026FC000220254B9B6A1C030AD5274B012202930F
:10270C00002320491846CDE9003304F097FF21201F
:10271C001D4B9B6A59030AD5204B012202930023BF
:10272C0018491846CDE9003304F088FF2220164BD7
:10273C009B6A9A030AD51A4B012202930023114972
:10274C001846CDE9003304F079FF23200E4B9B6A29
:10275C00DB030AD5134B01220293002309491846C7
:10276C00CDE9003304F06AFF2420074A936A6FEA2C
:10277C0003436FEA1343936204B010BD1D209AE724
:10278C00F7A5030EC099030E00ED00E00FA6030E93
:10279C0022A6030E3CA6030E66A6030E84A6030E09
:1027AC00A9A6030EC3A6030EF0B50024434B85B0B7
:1027BC000293074623460E4601222046CDE90044EB
:1027CC003F4904F03BFF3F4B9B6ADB0465D53E4B16
:1027DC002046CDE90143012223463949009404F0F7
:1027EC002DFF1720374B9B6A1D050AD5374B01224D
:1027FC000293002332491846CDE9003304F01EFF42
:10280C001820304DAB6A9C051FD50024304B01229B
:10281C0020460293CDE900442346294904F00EFFDB
:10282C00AB6BAA6A10040FD503932A4B0122CDE996
:10283C000143204623462249009404F0FFFE1FB1B9
:10284C00AB6A23F40043AB6219201E4B9B6A5905FB
:10285C000AD5214B01220293002319491846CDE9D0
:10286C00003304F0EBFE1A20164A936A13F48073BB
:10287C0015D01A4B01220293002311491846CDE9B9
:10288C00003304F0DBFE1B200E4A936A43F47F43B3
:10289C0093620023337005B0F0BD1620A2E7926A54
:1028AC009204F1D50E4A1846CDE9013204490122B1
:1028BC00009304F0C3FE1C20E6E700BFEEA6030E57
:1028CC00C099030E00ED00E004A7030E15A7030E3C
:1028DC0028A7030E41A7030E56A7030E71A7030EDC
:1028EC0089A7030EF0B50024414B85B0029307462F
:1028FC0023460E4601222046CDE900443D4904F012
:10290C009DFE3D4B9B6ADD066FD53C4B2046CDE9C9
:10291C000143012223463749009404F08FFE112015
:10292C00354B9B6A1C070AD5354B012202930023B9
:10293C0030491846CDE9003304F080FE12202E4DAC
:10294C00AB6A99071FD500242E4B01220293204617
:10295C002346CDE90044274904F070FE6B6BAA6A4C
:10296C0012060FD50393284B0122CDE901432046D3
:10297C0023462049009404F061FE1FB1AB6A23F09A
:10298C008003AB6213201C4B9B6ADD070AD51F4BDF
:10299C0001220293002317491846CDE9003304F0B5
:1029AC004DFE1420144B9B6A9C060AD5184B012231
:1029BC00029300230F491846CDE9003304F03EFE84
:1029CC0015200D4B9A6AD10658BF9A6A9A6A9206DC
:1029DC0042BF5A6A22F400525A629A6A42F0FF02CB
:1029EC009A620023337005B0F0BD102098E700BF49
:1029FC00B8A7030EC099030E00ED00E0CEA7030E9E
:102A0C0015A7030E01A8030E19A8030E2FA8030E79
:102A1C0089A7030E2DE9F041794B0446D3F80480C5
:102A2C0090B00023C8F3080683F31188BFF36F8FAF
:102A3C0002F07F40B0F17F4F0CD102F00C0008285F
:102A4C0018D1704A1846CDE901326F490122009322
:102A5C0004F0F4FD00252C460027F31E8DF81F70A2
:102A6C00092B00F2B580DFE803F00BA9ADA5B3B3D9
:102A7C00B3B3B3B1120746BF0C461D460125EBE7B5
:102A8C00624B0122CDE9017300235F491846DFF840
:102A9C007081009704F0D2FD8DF81F70D8F82C606F
:102AAC0016F0020604D05A4BCDE90173009707E0EB
:102ABC00D8F82C30002B0BDA564B0096CDE901637D
:102ACC00002301221846504904F0B8FD002239E0D9
:102ADC00D8F82C305B00F9D54F4B0122CDE90163BE
:102AEC00304633464849009604F0A8FDD8F8143017
:102AFC00A26943F48073C8F81430BFF34F8FBFF34F
:102B0C006F8F32F8023CD8F8142022F48072C8F887
:102B1C001420BFF34F8FBFF36F8F03F47F42B2F5D6
:102B2C005F4F2FD1DBB2022B2CD1236801220393F0
:102B3C003A4B3046CDE9016333493346009604F0F5
:102B4C007DFD22689DF81F30CBB908AE04F120073B
:102B5C00334620686168083403C3BC421E46F7D173
:102B6C000F9B002D48D0C3F3080121B96FEA532302
:102B7C006FEA43230F93104608A9FFF7FBFC10B034
:102B8C00BDE8F0811E4B9A6AD2B22AB101200DF138
:102B9C001F01FFF7A7FE0FE09A6A12F47F4F05D0D2
:102BAC0001200DF11F01FFF7FFFD05E09B6AB3F556
:102BBC00803F8BD3FFF764FD0246C3E700200DF185
:102BCC001F01E6E700200DF11F01ECE7144B6BE74A
:102BDC00144A18F4F87F144B08BF1346103ECDE985
:102BEC000336124B01220293002307491846CDE904
:102BFC00003304F023FD69E76FF30803BAE700BF65
:102C0C0000ED00E07CA8030EC099030EA7A8030EEC
:102C1C00BEA8030EDFA8030EEDA8030E0CA9030E2D
:102C2C0028A9030E4EA8030E63A8030E4CA9030E8D
:102C3C00064B5A6942F010025A615A6942F480629A
:102C4C005A615A6922F008025A61704700ED00E09F
:102C5C00EFF30880EFF3098101B57246FFF7DAFE56
:102C6C0001BD00BF002080F31488BFF36F8F0020DC
:102C7C0080F30A8880F30B880F4880F3088801F0F2
:102C8C0017FB00200D490860BFF34F8F00F02CF8A4
:102C9C00202080F311880A484FF40061401880F31B
:102CAC000988EFF314800221084380F31488BFF3E2
:102CBC006F8F00F097F800002822002F94ED00E0B1
:102CCC00E810002F002318460649D1F89020C2F3D3
:102CDC000722934200DB7047C1F89830C1F8A0007E
:102CEC000133F6E700ED00E010B572B6002484F372
:102CFC001388FFF7E7FF23464FF0FF300C4A03F130
:102D0C0020010133102B42F82100F8D100234FF0A1
:102D1C00FF30074A03F160010133102B42F8210008
:102D2C00F8D162B6BFF34F8FBFF36F8F10BD00BFEA
:102D3C0000E100E01EF0040F0CBFEFF30880EFF38E
:102D4C000980816911F8021C0229FFD001B5724675
:102D5C0004F069FC01BD00BF00B2002807DB0123B1
:102D6C004109034A00F01F00834042F821307047AC
:102D7C0000E100E000B200280CDB01220649430907
:102D8C0000F01F008240203341F82320BFF34F8F07
:102D9C00BFF36F8F704700BF00E100E000B2002866
:102DAC0001F10101ACBF00F16040064B4FEA41114B
:102DBC00C9B2ABBF00F5614000F00F0080F8001302
:102DCC001954704714ED00E0044B054A23F07F03BF
:102DDC009360BFF34F8FBFF36F8F70470000030EEC
:102DEC0000ED00E008B5FFF7EFFF074AD2F8883096
:102DFC0023F47003C2F88830FFF794FBFFF79EFBB7
:102E0C0000F09CF802F054F900ED00E042F8203C90
:102E1C00009B0B4942F81C3C019B21F0010142F83C
:102E2C00183C029B42F8081C42F8143C4FF080738B
:102E3C0042F8043C0023203A0265C367704700BF88
:102E4C00A511030E00B50D4B15469860826F0C4B07
:102E5C000E461A60836E83F30B882C4686F3098822
:102E6C000020044B98472046002100220023024CEE
:102E7C00204700007F76030EA511030E9C09002F3E
:102E8C00B807002F1022014B1A61704700ED00E0CB
:102E9C00054B5A699B689A421FBF044A536843F01A
:102EAC0080535360704700BF9C09002F00ED00E079
:102EBC00084B9B6883420BD1EFF3058343B1064B60
:102ECC005A6842F080525A605A6A22F400425A629E
:102EDC0002F056BF9C09002F00ED00E014498A68EF
:102EEC004FF030001044EFF3098C80E8F01F2020E5
:102EFC0080F31288BFF36F8F0E4F4FF000664A6954
:102F0C008A603E60906F0C4C2060D06F0023D367BA
:102F1C0080F3118802F1300090E8F01F8CF30988DF
:102F2C0002F1000004B504F09DFBBDE804407047BD
:102F3C009C09002F04ED00E0B807002F002320208F
:102F4C0040F2D71210B5044CE1180133934281F8CA
:102F5C000003F9D110BD00BF00E100E008B5EFF3AC
:102F6C000583064A103B02EBC30152F83300496853
:102F7C008847BDE80840FFF78BBF00BF4C8A030EA3
:102F8C000148006870470000B807002F1FB50121E9
:102F9C00094B0A4A0A4800F01DF90023064A03931C
:102FAC00084B0121019301A8D31A029300F01CF9DC
:102FBC0005B05DF804FB00BF00E00B2F0000002FF4
:102FCC00E49B030EA003002F0A7A0B6810B562F382
:102FDC0004031C46CB68520923F01F0343EA420347
:102FEC00044A43F00103C2F89800C2F89C40C2F8AE
:102FFC00A03010BD00ED00E01FB50E4B0446D3F819
:10300C009030C3F30723013B98420FD90A4B03902E
:10301C000293002301221846CDE90033074904F03E
:10302C0045FB6FF01504204604B010BDFFF7CCFF34
:10303C00F9E700BF00ED00E063A9030EB099030EA1
:10304C002DE9F04F8946144606464FF00008524DC4
:10305C0089B0C8452DDAD6F804A0BAF1000F4AD0D1
:10306C00BAF11F0F17D91AF01F0F14D1D6F800B0F0
:10307C001BF01F0F0FD1584604F00FFB07460AEB4D
:10308C000B00013804F009FB874216D06FF01507CE
:10309C00424B039702E0424BCDF80C800293002385
:1030AC0001221846CDE900333E4904F0FFFA6FF0D7
:1030BC001504204609B0BDE8F08F17F1160FE7D0C4
:1030CC00BC42E5DDC5F89870D5F89C10C5F8987031
:1030DC00D5F8A03021F01F0143F01F0BD6E90032C8
:1030EC001A44994202F1FF3A1AD1D34507D131461D
:1030FC00F8B204F0EBFA08F101080C36A9E73146F6
:10310C00C5F89870D5F89C30E0B263F30402C5F8AA
:10311C009C2004F0DBFA10F1160FC8D0441CEAE72F
:10312C00C5F89870D5F8A020013B23F01F0302F0DE
:10313C001F021343D3453146E0B2C5F8A030E8D0A6
:10314C0004F0C4FA10F1160FB1D0C5F89870D5F888
:10315C009C209DF818300BF1FF3B62F304038DF8B3
:10316C001830D5F8A0309DF818205B0863F347128F
:10317C008DF81820D6E900321344049323F01F0372
:10318C005B44A3EB0A03013023F01F0304A9C0B274
:10319C000793FFF731FFBEE700ED00E0AFA9030E88
:1031AC0089A9030EB099030E0522044BC3F8942091
:1031BC00BFF34F8FBFF36F8F704700BF00ED00E080
:1031CC00BFF35F8F0022024BC3F89420704700BFFF
:1031DC0000ED00E010B5034C2278FFF731FF2070B2
:1031EC0010BD00BFD409002F2DE9F74F294D8A4699
:1031FC0006464FF00008AB46274FD0451BDAD6F8F1
:10320C000490B9F1000F3FD031680846019104F0E9
:10321C0044FA0199044609EB0100013804F03DFA27
:10322C0084424FF014021D4B08D002FB08F36FF0E0
:10323C0015024BF8032003B0BDE8F08F14F1160F04
:10324C002C60F8D01978A142F5DD02FB08B0C7F864
:10325C009840C7F89840D7F89C4000F10801007BD3
:10326C0064F304000871D7F8A0000C79400860F3EF
:10327C0047140C71D7F89C1021F01F016960D7F826
:10328C00A01021F01F01296108F1010814350C363A
:10329C00B3E700BFBC07002F00ED00E0D409002FFE
:1032AC00F0B55349534DD1F890302C68C3F3072334
:1032BC009C4287B000F299800020FFF781FF4E4BB3
:1032CC00C1F8C030844216D14C4D01A82C70FFF7C8
:1032DC0023F9002607464A4CB74213D100202B781D
:1032EC004349D1F89020C2F30722934277DBFFF7D2
:1032FC005BFF002046E0696801EB0011FFF764FEFC
:10330C000130DFE70199300101EB0613DA68224046
:10331C00B2F1807F52D00AD8B2F5001F34D0B2F58A
:10332C00800F3ED0B2F5801F12D00136D4E7B2F137
:10333C00006F43D0B2F1805FF7D15A689B6809588F
:10334C00013B22F01F00034423F01F03012032E055
:10335C005A689B680958013B22F01F000344012066
:10336C00844623F01F0340EA4C10CDE902218DF86E
:10337C00100002A928780593FFF73EFE00282ADAF0
:10338C006FF0150007B0F0BD5A689B680958013BF7
:10339C0022F01F0003444FF0020C012023F01F0306
:1033AC00E1E75A689B680958013B22F01F0003446F
:1033BC00062023F01F034FF0000CD4E75A689B68DB
:1033CC000958013B22F01F0003444FF0030C01206D
:1033DC0023F01F03C7E72B7801332B70A5E7C1F847
:1033EC009830C1F8A00001337BE74FF0FF30C9E7FC
:1033FC0000ED00E0F09B030EAAFF4400D409002F5F
:10340C000000F0FFF0B587B007460E4614460021C9
:10341C00102268461D4605F048F902238DF802304B
:10342C00054B2A4621466846CDE90476019302F005
:10343C004BFF07B0F0BD00BF0B77030E08B5024B76
:10344C001B689847002008BDD007002F034B044A87
:10345C001860937843F0020393707047D007002FE5
:10346C00AC01002F08B50649064821F00701C1F14F
:10347C003C5202F53E2203F00AFA002008BD00BFC0
:10348C004F27002FD407002F70B586B000F004F939
:10349C0000F0EAF800F05EF81422194B6D46D3F8F0
:1034AC00CC03D3F8E413D3F8C843164BE4B2C3F8F7
:1034BC0068240122C3F88024C3F84044002489B254
:1034CC0080B2114EC3F84404C3F84814C3F85044F6
:1034DC00C3F880445A615A6100F0A0F80FCE0FC5B2
:1034EC0096E803006A4685E803002346204652F816
:1034FC00041B0133062B0864F9D106B070BD00BF64
:10350C0000E0FF0F00D00052009A030E48B1054BAB
:10351C00054A1B68B3FBF2F35843044B43F0010319
:10352C0018477047C802002F40420F00309A030E14
:10353C00BFF34F8F0549064BCA6802F4E062134390
:10354C00CB60BFF34F8F00BFFDE700BF00ED00E085
:10355C000400FA0508B51021114800F027F8114AAB
:10356C00D2F8903423F00103C2F890340E4BD3F808
:10357C00082522F00602C3F80825D3F8182522F0F6
:10358C000602C3F81825D3F8082542F00102C3F847
:10359C000825D3F8182542F00102C3F8182508BDF8
:1035AC00E007002F00E0015200200152012970B504
:1035BC00044624D0102921D1154DEFF31186202378
:1035CC0083F31288BFF36F8F00232A68CAB93BB903
:1035DC00104AD2F8903423EA01030B43C2F890341A
:1035EC002146284604F096F8002323606B685BB9EB
:1035FC00C5E9004486F31188BFF36F8F70BD064D8B
:10360C00DBE712680133E1E71C606C60F2E700BF96
:10361C00E407002F00E00152EC07002F0F4810497F
:10362C0020F003000F4BC0F13F5202F598324B6172
:10363C001346002AB8BF02F11F035B11033323F0BA
:10364C000303B2FBF3F288600B6102FB030001235E
:10365C00C860C1E9073100208A6170470820C12F7A
:10366C00F407002FF89B030E0122024BC3F804242D
:10367C00704700BF003008E002460B4601480021AD
:10368C0004F068B8003008E002460B4601480121FE
:10369C0004F060B8003008E00122024BC3F80424A7
:1036AC00704700BF002008E008B5074804F02BFD68
:1036BC0038B10648FFF7CAFE0448FDF767FD002045
:1036CC0008BD6FF01200FBE76C89030EDD36030EAC
:1036DC000A2838B50446074D04D1AB680D2128469D
:1036EC005B689847AB6803485B68E1B29847204633
:1036FC0038BD00BF6C89030E2DE9F04740F206354A
:10370C004668D00648BF4FF0030C337C02EA05052F
:10371C0058BFC2F3401C86B001F01F07B5F5837F7C
:10372C00144647EA43178DF803C04CD00DD8062D2C
:10373C004BD005D8A5B1022D12D06FF015003FE08B
:10374C00B5F5807FF9D101250AE040F202229542BD
:10375C003DD0B5F5407F3CD0B5F5007FEDD10425CB
:10376C004FF00108736808FA01F82203C3F8488087
:10377C0031D57368C3F80480B06890BBB7F5A07FEF
:10378C0007F01F034FEA571177D23E4A52F8212017
:10379C00C4F3004102EB8302D2F8803081F00101C6
:1037AC00C4F3404423F4706344EA410423F00F0350
:1037BC001C4344EA8C0444EA0524C2F880400020EF
:1037CC0006B0BDE8F0870925CAE70825C8E7062535
:1037DC00C6E70525C4E7630344BF7368C3F80880D4
:1037EC00CAE739460DF1020204F0A9FB14F4403F7C
:1037FC0081460CD13946B06804F0D6FBB9F1000F04
:10380C00DDD19DF80210B06800F06CFED7E74FF0E8
:10381C00000A01ABCDE901AACDE9043ACDF80CA020
:10382C003946B06803AA04F0C9FA5045C7DB14F452
:10383C00003317D09DF80330C4F3004484F0010426
:10384C008DF80E308DF80C508DF80D4053463946DE
:10385C00B06803AA00F0C8FD7368C3F84480002860
:10386C00CCDAACE7CDE904330DF10303039339460D
:10387C00B06803AA04F0A2FAF1E7203350F8233021
:10388C00FFDE00BF0C9C030E4209034670B502D04C
:10389C00092A17D070BD0D4E326951680029F9D034
:1038AC00012503F01F030C689D400029F2D08A68A3
:1038BC002A4002D030464B6898472CB123682146E9
:1038CC001C46F2E7024EE7E72346F8E75089030E61
:1038DC003489030E38B54568A86890B104F05EFBD6
:1038EC00014670B9A86804F03DFB044658B902467D
:1038FC000649A86804F020FB224601216920FFF745
:10390C004DFA002038BD6FF00400FBE79538030E2C
:10391C00F0B545681646A8682A7C01F01F0487B0EC
:10392C0044EA4214002869D0B6F5001F04D12146A0
:10393C0004F08CFB002052E00020B6F5800F01AAA9
:10394C00019050603AD1B3F1007F14BF05230423DA
:10395C008DF804300023CDE904230393EB680DF1BB
:10396C00030723FA01F111F001013AD1B6F1A07F5E
:10397C0037D104F01F03B4F5A07F4FEA541003F1C4
:10398C0020033ED2204A52F8202052F82330DB0785
:10399C0027D43A462146A86804F0D1FA163018D03C
:1039AC0002972146A86803AA04F008FA002816DB3F
:1039BC0001222146A86804F0F9FABBE7B3F1C06F05
:1039CC0005D0B3F1007F14BF01230223C0E703230A
:1039DC00BEE73946A86800F08BFD0028E0DA07B096
:1039EC00F0BD3A462146A86804F0A9FA0028D8D1BF
:1039FC009DF80310A86800F075FDD2E76FF0850004
:103A0C00EDE751F82330FFDE0C9C030EC0B22DE91C
:103A1C00F84303282CD8DFE800F0021F2327154BAE
:103A2C00D3F80C530024144FDFF85080DFF850907B
:103A3C0025FA04F3DB070AD5002358F8246047F86D
:103A4C00243026B1214659F824200E48B0470134C1
:103A5C00202CEDD1BDE8F883064BD3F81C53E1E7DD
:103A6C00044BD3F82C53DDE7024BD3F83C53D9E786
:103A7C000025D7E700A0095F00A1095FC008002F4F
:103A8C004008002F8889030E1F299FBF054840F866
:103A9C002120054A002094BF42F821306FF0150018
:103AAC00704700BFC008002F4008002F1F2970B5B9
:103ABC0002D96FF0150070BD012303FA01F1002348
:103ACC001846224D224C55F8046BA6B10E4212D06A
:103ADC00206800EA0106F2B1A6BB0843022B206065
:103AEC001C4812D0032B13D0012B14BFC0F80413A5
:103AFC00C0F8141301200133DBB2042B04F10404CD
:103B0C00E1D10028D5D00020D5E7C0F82413F1E787
:103B1C00C0F83413EEE7AEB120EA0100022B2060AE
:103B2C000C4809D0032B0AD0012B02D0C0F8081383
:103B3C00E0E7C0F81813DDE7C0F82813DAE7C0F89F
:103B4C003813D7E76FF07700B5E700BF5C9C030E26
:103B5C003008002F00A0095F002318460F4A1049B7
:103B6C0010B502F58072C2F80812C2F81832C2F809
:103B7C002832C2F8383221FA03F4E40748BF42F87D
:103B8C0023000133202BF6D1002201216020FFF706
:103B9C0005F96020FFF7E0F8002010BD00A0095FD8
:103BAC0041600400036803F01F02B3F5A07F0260BC
:103BBC004FEA53123ABF024B53F8220000207047D1
:103BCC00809C030E2DE9F04F9046064640F2FF1AFA
:103BDC005A4F85B000EB8109B14503D1002005B0E7
:103BEC00BDE8F08F3268C2F3C323082BC2F308047C
:103BFC0000F2A1805249544508BF4FF0FF34CB5C12
:103C0C00B2F1D05F00934FEA126314D2152B04D893
:103C1C00032B09D96FF08500E1E7173B022B6FD816
:103C2C00DFE803F076797C00013B022B0CD8DFE84F
:103C3C0003F05A6164002F2B57D0382B01D02E2B58
:103C4C00E8D14FF0010B52E0C8F804464FF0010BDD
:103C5C005D46631C45D0012103A80394FFF7A2FF26
:103C6C00039B01FA03F38364681C09D0039403A833
:103C7C00002D56D1FFF796FF039D01FA05F58560DF
:103C8C00336803A81A0452BF5D4601254FF0000BA0
:103C9C0001930394FFF786FF039B00EB8300019BCA
:103CAC00D0F880C0C3F3412E009B0CEA070C1B021A
:103CBC0043EA8E0343EA0B0343EA0C0343EA45034E
:103CCC00C0F8803031680B0432D503A80394FFF799
:103CDC0069FF01230021039A93404364204603F0BB
:103CEC0013FE043678E7C8F80C464FF0000B4FF083
:103CFC00FF35AEE7C8F81046A8E7C8F80846F4E761
:103D0C00C8F8604575884FF0010B05F00105A0E778
:103D1C00C8F86445F6E7C8F86845F3E7C8F86C4599
:103D2C00F0E7FFF73FFF039D01FA05F34360A7E7B8
:103D3C00C1F34041D2E76FF0150050E7F0F0FCFF03
:103D4C009BAD030E0278024B1A70024801F0B8BB0F
:103D5C00DF09002F6C03002F7FB50BAB059303938A
:103D6C00054B0122029300231846CDE90033FEF7E0
:103D7C00EFF907B05DF804FB65AA030E10B500223D
:103D8C0086B000F091FE044680B11C4B04931C4B92
:103D9C0003931C4B02930023CDE9003318460122F8
:103DAC001949FFF7D9FF6FF0040017E043F60952E9
:103DBC000023164801F0B8FB002811DA144B2046FA
:103DCC0004930F4B012203930E4B0F49CDE9014392
:103DDC0000942346FFF7C0FF6FF0730006B010BDD0
:103DEC000C4B18780028F9D00B4B00940493044B1F
:103DFC000393044BCDE901432346CFE7BAA0030E4E
:103E0C006BAA030E65AA030EB899030E6C03002F60
:103E1C007EAA030EDF09002F88AA030E034B1B7822
:103E2C0013B1034801F04CBB704700BFE009002FF1
:103E3C005C03002F054B1B7833B14FF0FF324FF072
:103E4C00FF33034801F070BB704700BFE009002F3F
:103E5C005C03002FF0B54FF0FF304FF0FF3187B00F
:103E6C0000F044FF10F0FF0512D01D4B04931D4BC6
:103E7C0003931D4B02930023CDE900330122184616
:103E8C001A49FFF769FF6FF00405284607B0F0BD2B
:103E9C00174800F0E7FD044648B1114B0095049318
:103EAC00144B0393104BCDE901532B46E6E7FFF778
:103EBC00C1FF0127104E56F8042B1369526819786C
:103ECC005F7031B10134052CF5D10025FFF7A6FF49
:103EDC00DBE71078FFF752FF05460028F2D0F5E734
:103EEC00BAA0030E91AA030E65AA030EB899030E8D
:103EFC00513D030EA9AA030EA89C030E2DE9F04117
:103F0C0004460D46476804F0E9F988B12021EFF327
:103F1C0011831A4681F31288BFF36F8F60680068B3
:103F2C00D0F83001D0B983F31188BFF36F8FEEE76F
:103F3C001E4B1B78002BE9D04FF0200864266368D9
:103F4C001B68D3F83031FBB9012003F0F8FD013EBA
:103F5C00F5D10021202004F03AFAEFE7BB6A0020EB
:103F6C001D706368B96A1B68C3F83C170121C3F85C
:103F7C004017C3F83001D3F83001196582F311886A
:103F8C00BFF36F8FBDE8F081EFF311831A4688F30E
:103F9C001288BFF36F8F61680968D1F8301100295E
:103FAC00DCD183F31188BFF36F8FD2E7E009002FC8
:103FBC0070B40F4CD4E90015501A63EB0506400998
:103FCC0040EAC6602026E0FB0615C4E90015002473
:103FDC0000250849C1E90023074BC3E90045EFF36D
:103FEC00118186F31288BFF36F8F70BC02F0B6B8E4
:103FFC001005002FF804002F0805002F00220121C6
:10400C006D2008B5FEF7CAFE002000F0ADFB0028BD
:10401C001FDB104804F01CF800281ADB00F07EFBB4
:10402C000D4B20F01F00C3E900010C4B0022C3E92B
:10403C0000014FF0FF304FF0FF31094BC3E9000195
:10404C00084B0949187A00F079FB10220020074B25
:10405C001A6008BDC402002F1005002FF004002FB9
:10406C00F804002FBC02002FBD3F030E4809002F9F
:10407C0008B500F053FB064AD2E90032C01A054BD2
:10408C0061EB0201C3E90001400940EAC16008BDCF
:10409C001005002F0805002FF7B5224B0146224FC3
:1040AC00187A224BD7E90056D3E900239E4208BF69
:1040BC00954211D1B1F1806F0ED24901012938BF5F
:1040CC00012101224D1946F10006C7E9005603B043
:1040DC00BDE8F04000F0E0BB154BDFF858C0D3E969
:1040EC000043DCE9002CA41843EB0C0C4FF0200E21
:1040FC0022466346C1FB0E23954276EB0301C7E9CA
:10410C0000230DD2291B66EB0C04C82974F10004A2
:10411C00B4BF01210021009100F088FB03B0F0BD79
:10412C000021F8E7BC02002F0005002FF804002F37
:10413C001005002F0805002F2DE9F3410022002364
:10414C000F21CDE90023134804F09FFA0024064602
:10415C002546DFF8448026FA04F3DB070FD4670109
:10416C0008EB44102021FFF78FFABFF35F8F37F86D
:10417C00083023B1062B1EBF0123A3401D4301347D
:10418C00042CE8D12946034802B0BDE8F04104F004
:10419C0071BA00BF9403002F80FB882F38B50F2114
:1041AC000C4804F06AFA0C4C0F210C4804F065FA28
:1041BC00A3685D6825B1002320461946084AA84724
:1041CC00A3681B691BB101220021034898470020FA
:1041DC0038BD00BF7C03002F8889030E9403002F89
:1041EC004541030ED3B54FF0FF364FF0FF37002299
:1041FC000F21CDE900670A4804F047FA4442044015
:10420C000748214604F03DFA0028F0D094FAA4F4B3
:10421C00B4FA84F4034800EB441002B0D0BD00BFE4
:10422C007C03002F80FB882F13B506220124114933
:10423C000280014449118C40BFF35F8F2021FFF7AE
:10424C001BFA0D48214604F01CFA0C4883681B68C5
:10425C0013B100220C2198474FF0FF334FF0FF327F
:10426C002146CDE900230448002204F00EFA02B0E6
:10427C0010BD00BF800477D09403002FC089030EBB
:10428C00002310B504460380BFF35F8F2021FFF796
:10429C00F3F90123044905482144491103FA01F1BA
:1042AC00BDE8104004F0E6B9800477D07C03002F01
:1042BC00034AD2F88C3043F44063C2F88C30704718
:1042CC0000ED00E0036803F01F02B3F5A07F02606D
:1042DC004FEA53123ABF024B53F8220000207047AA
:1042EC00109D030E034A4309D35C00F01F001844D1
:1042FC00C0B27047A9AD030E2DE9F04184460027EA
:10430C0088B0DFF854E001910DF108081EF8013B6C
:10431C0008AA02EBD30212F81C6C03F00703DE4070
:10432C0016F0010607D10137062FEFD100263046D3
:10433C0008B0BDE8F081094D02AC0FCD0FC495E873
:10434C00030084E8030058F82720136A4CF8273040
:10435C001362002BE7D0EAE7B9AD030E189A030EEF
:10436C00F0B5044685B008460191FFF7BBFF04EB9E
:10437C004006B38A0D46DB0731D5204603F0FCFC22
:10438C002946204603F068FC50B1204603F07AFC25
:10439C000023276807EB8000C0F81035C0F81035F3
:1043AC002946204603F097FC002103A8B18203950F
:1043BC00FFF788FF039B00EB8300D0F88020094BAC
:1043CC00134043F00203C0F8803001A8FFF77AFFD6
:1043DC000123019A93404364084605B0F0BD6FF089
:1043EC001500FAE7F0F0FCFF2DE9F043044685B028
:1043FC00084616461F460391FFF774FF0D4680468C
:10440C0026B3204603F033FC18B9204603F024FCF5
:10441C0018BB04EB4809B9F8143003F01C0313B1B2
:10442C007378012B19D001238DF80B30002328460B
:10443C00CDE90063721CB31C0DF10B0103F0B4FB4E
:10444C00B9F8143043F00303A9F81430002F3ED010
:10445C002946204603F00BFC20B96FF0150005B07F
:10446C00BDE8F08300223E7823684FEA860C03EB0C
:10447C008603C3F81025C3F8102504EB4802938A71
:10448C0023F4604323F0200393827878F8B12168F9
:10449C00134B6144D1F81045BF782340C1F8103557
:1044AC0041F6F073000400F4403003EA05130343B3
:1044BC003805D1F8104500F4801003432343C1F8AC
:1044CC001035938A43EA463343F02003938203A8C2
:1044DC00FFF7F8FE0123039A934083640020BEE7A4
:1044EC000FE0ECFF014803F046BB00BFCC02002FED
:1044FC0010B504480C4603F024FB0028A4BF207020
:10450C00002010BDCC02002F2DE9F04F074657F8C4
:10451C0004AB0822DAF834138046C9B250468DB089
:10452C0041F4002103F000FC0203054633D51822A8
:10453C0000210DEB020004F0B8F840F2072106A8A8
:10454C00FFF7DAFE4FF0000B594B0DF118090193F0
:10455C00019A584912F8013B0192DA088A5C03F07F
:10456C00070322FA03F3DB071BD40BF1010BBBF19E
:10457C00060F09F10409EBD14FF40021002250463B
:10458C0003F0D2FB40F2072106A8FFF7B5FE002886
:10459C00D8D125F400250124002D73D10DB0BDE830
:1045AC00F08F454B5B440293D9F80060002EDCD0B1
:1045BC0096FAA6F6B6FA86F6029B1C7846EA4414DE
:1045CC002046FFF78FFE08EB4000818AF208C1F30A
:1045DC00820303930093012319F8020006F00706E7
:1045EC0003FA06F620EA060009F8020005A805946D
:1045FC00FFF768FE059A11F0100F02F1200250F837
:10460C002260039BC6F3014623D03846009A21460C
:10461C0003F042FB05A80594FFF754FE059BF6B288
:10462C00203350F82330C3F301439E4207D10021BD
:10463C00204603F002FB3146204603F0FEFA05A8A3
:10464C000594FFF73FFE0122059B02FA03F3036278
:10465C00AAE7022E14BF022103212046039303F084
:10466C00ECFA039B032B03D0022E07D1012BE6D1CE
:10467C0021463846009A03F00FFBE0E7032EDED10B
:10468C00022BF4E795FAA5F3B3FA83F304FA03F2D9
:10469C0025EA020503F5A2725AF8222008EB43031F
:1046AC003846B3F89C10C2F3014203F0F5FA73E7F5
:1046BC00B9AD030E3C9D030EB9AD030E0123044AA4
:1046CC0003FA00F0936823EA00039360704700BF7D
:1046DC000000002F73B504460191EFF311862023DF
:1046EC0083F31288BFF36F8F0B4D019B6A6801A88F
:1046FC001340019303F025FA002807DB01226B68B5
:10470C00824023EA02036B602070002086F311883C
:10471C00BFF36F8F02B070BD0000002F4FF0FF325F
:10472C006FF0404330B5044CD4E90001824273EB86
:10473C000105F9D330BD00BF50C7995F30B50C25CA
:10474C00074B1C1894F8244005FB0433C3E90312EF
:10475C0018750123034A8340C2F8343330BD00BFBF
:10476C000000002F00C0995F10B50E4C2378B3B930
:10477C000422194622750C4A84F82830980804281B
:10478C0003D11423C2F81011F8E70433402BF5D1F0
:10479C006D20FEF7E1FA01230020237010BD6FF0AD
:1047AC007700FBE70000002F00C0995F2DE9F04770
:1047BC001C4E1023B04658F8044F0025E4434FF02C
:1047CC00010ADFF8649004F01004C9F83833E9B238
:1047DC0064B96D20FEF7CEFA134AD2F8583723F09D
:1047EC000103C2F858373470BDE8F087B3680AFA91
:1047FC0005F73B40D80602D50846FFF75FFF736804
:10480C0027EA0307FA0609D5002209EB0513C3F8BA
:10481C002C25E30702D5404603F0ADF964080135B9
:10482C00D5E700BF0000002F00C0995F70B51E4691
:10483C001546174A9DF81010131893F824300733B7
:10484C0002EBC30442F833506660C6F31302040152
:10485C00A1B104F1BF4404F5CE14C4F82055C4F83A
:10486C0024250C4C80000444236833B1FFF756FF19
:10487C00A842B14101D20023236070BD04F1BF43B3
:10488C0003F5CE13C3F82055C3F82425F5E700BF74
:10489C000000002F00C1995FF0B50E4D2B1893F856
:1048AC0024300001073355F8334005EBC3077E680D
:1048BC00641800F1BF4021F0004146F1000641EAC6
:1048CC00C27100F5CE1045F833407E60C0F8281553
:1048DC00F0BD00BF0000002FF7B5284B284CD3F8D3
:1048EC003C6304F140070EB903B0F0BD96FAA6F094
:1048FC000123B0FA80F08340DA43224926EA03060A
:10490C00231893F82450830019440C2303FB05430C
:10491C00DB686BB3D7E8EF3F03EA020CC7E8EECFD6
:10492C00BEF1000FF6D1C340DB0719D5020102F12D
:10493C00BF4202F5CE12D2F82435D2F82025D1F898
:10494C0000C0BCF1000FCED04FF0000CC1F800C07D
:10495C000C2101FB054529690091E9688847C2E7EC
:10496C00EB1D04EBC30C54F83320DCF80430E6E701
:10497C000A68002AB7D00B60B5E700BF00C0995F8A
:10498C000000002F00C1995F07B5164A13685BB190
:10499C0012794AB10288510409D50522D0F80210C7
:1049AC008DF8042001A8984703B05DF804FB6FF460
:1049BC0030610A44042AF7D8DFE802F0030507093E
:1049CC000B000022EAE70122E8E70222E6E70322D5
:1049DC00E4E70422D0F802108DF804200DEB02005D
:1049EC00E1E700BF4C09002F13B50F4B1A68BAB1A1
:1049FC001B79ABB1038813F4804103D001238DF8EC
:104A0C00043009E0C488012BADF805400AD0033B03
:104A1C00012B05D88DF80410D0F8021001A890478E
:104A2C0002B010BD0223EAE75409002F07B50C4A67
:104A3C0013685BB112794AB10288510409D500227E
:104A4C008DF80420D0F8021001A8984703B05DF847
:104A5C0004FB40F601118A42F8D10122F0E700BFB5
:104A6C005C09002F044B02461979012011B9187109
:104A7C0008461A60704700BF6409002F07B5094B40
:104A8C001A6862B11B7953B10388D0F8021013F481
:104A9C00804318BF012301A88DF80430904703B060
:104AAC005DF804FB6409002F07B50B4B1B7983B130
:104ABC0040F201338DF806008DF807106846082186
:104ACC00ADF80030CDF8022003F0D7FA03B05DF852
:104ADC0004FB0120FAE700BF6409002F07B50C4B5B
:104AEC001A688AB11B797BB10388D0F802105B0479
:104AFC0003D502238DF8043004E08379002BF9D020
:104B0C00012BF7D001A8904703B05DF804FB00BF60
:104B1C006C09002F13B50E4A136863B1127952B1A8
:104B2C00028812F4804108D002228DF80020D0F8BF
:104B3C0002106846984702B010BDD0F806400194A8
:104B4C0040F20174A242F6D18DF80010EFE700BFDD
:104B5C007409002F13B5114A136863B1127952B15D
:104B6C00028812F4804108D001228DF80420D0F87C
:104B7C00021001A8984702B010BD40F60104A242F1
:104B8C00F9D182798DF804108DF80720C2798DF84F
:104B9C000620027A8DF80520E9E700BF7C09002F7A
:104BAC0070B50588ABB22D0404D50639063003F078
:104BBC0053FA70BDC3F305230B2BFAD8034A52F8F2
:104BCC002330002BF5D0BDE870401847409D030EF4
:104BDC0070B506460C460625224631460648FCF7BB
:104BEC0069FB844206DD012003F00DFC013DF3D18D
:104BFC00022070BD0020FCE7D802002F10B5012167
:104C0C000C4803F037FD01220B4BD3E8EF1FC3E830
:104C1C00E02F0028F9D1094B1B6A13B1084800F0AA
:104C2C00ABFD084B1C6804B910BD63689847246839
:104C3C00F9E700BF8803002FE002002F3403002F98
:104C4C008C09002F8409002F034BD3E8AF0F431EB0
:104C5C0058425841704700BFE002002FF0B591B0A8
:104C6C0005460C4617461E4603F038FB48B9FFF7BD
:104C7C00EBFF30B12146284611B0BDE8F040FFF7FC
:104C8C00A7BF202C1AD85C232246294608A8ADF8C9
:104C9C001C30ADF81E4003F0FBFC10483A4633467E
:104CAC0007A903F073FAB0B9FFF7CEFF20B10C4897
:104CBC0000F062FDC00F400011B0F0BD2023CDE923
:104CCC000343084B01220293002307491846CDE900
:104CDC00003303F0C2F90220EEE700BF3403002FCB
:104CEC008C09002F24AB030E7099030E13B50446E8
:104CFC00FFF7AAFF024610B1002002B010BD054814
:104D0C00CDE90041012103F0C0FC0128F4D06FF083
:104D1C000A00F2E78803002F1FB50024064B03900E
:104D2C000293204623460122CDE90044034903F0B7
:104D3C0094F92046FCF74AFA4DAB030E7099030E1A
:104D4C0030B51546421E0446002387B0072A28D8E2
:104D5C00DFE802F00427271416222725174ACDE98D
:104D6C0001320093002301221846154903F075F90E
:104D7C0015B12046FFF7D0FF07B030BD114AEEE762
:104D8C00114A0391CDE90132009300230122184608
:104D9C000B4903F062F9EBE70C4A0391F2E70C4A7A
:104DAC00DDE70C4BCDE903410293002301221846A9
:104DBC00CDE90033024903F050F9D9E76AAB030E91
:104DCC007099030E93AB030EB0AB030ED9AB030E6D
:104DDC0006AC030E24AC030E38B50F4D0F4910482A
:104DEC0003F03BFA2868FCF707FA041E09DA14F101
:104DFC00780F06D0002221460520FFF7A1FF2046A0
:104E0C0038BD6A6807492868FCF722FA041EF6DAEE
:104E1C00002221460620F0E7D002002F354E030E6B
:104E2C008C09002FD802002F10B58AB00022002365
:104E3C000A4801A900F01EFA044608B10AB010BDD8
:104E4C00BDF8061002A8FFF7C3FE0028EED0012221
:104E5C0021460820FFF774FFE8E700BF3403002F5A
:104E6C001FB50446FDF718F9064B012202930023E7
:104E7C0005491846CDE9003303F050F9204603F0FC
:104E8C005DF900BF68AC030EC099030E2DE9F0412B
:104E9C00054686B00E46EFF31188202383F3128863
:104EAC00BFF36F8F0024042898BF234B234A98BF6D
:104EBC0053F82030976888BF214B127C2149CDE9EB
:104ECC000432214B03900293012223462046CDE964
:104EDC00004403F023F96EB1F369C3F308034BB13B
:104EEC001A4B0122CDE90143204623461549009473
:104EFC0003F014F92FB1384603F0F9F908B103782F
:104F0C0003B91348134B012202930023CDE903701C
:104F1C00CDE9003318460B4903F000F93146284619
:104F2C00FFF79EFF88F31188BFF36F8F384606B0EA
:104F3C00BDE8F041FDF7BCBF709D030E9C09002F2E
:104F4C0077AC030EC099030E8DAC030EB5AC030EFB
:104F5C0085AC030ED6AC030E38B50A4B53F8204083
:104F6C00013053F82050A54200D838BD606830B1EC
:104F7C00037EDB0701D403F0AEF80834F3E72368B3
:104F8C009847FAE7849D030E012270B5294B86B031
:104F9C0003201A70FFF7E0FF01F07AF90420FFF705
:104FAC00DBFF254C254D2646AE4204F130040FD3D1
:104FBC0000F01CFE204CAC4226D300F02BFEFBF77D
:104FCC0077FD1F4A938923F00103938106B070BDCE
:104FDC0054F80C3C059354F8103C049354F8143CCE
:104FEC00039354F8183C029354F81C3C019354F866
:104FFC00203C009354E90A2354E90C0100F002FC14
:10500C0054F8303C5E65CEE7D4E90A23B3F1FF3F98
:10501C0008BFB2F1FF3F05D052EA0301206803D16B
:10502C0003F0FEF93034C6E70649183001F006F8F3
:10503C00F8E700BFE009002F0499030E0499030E52
:10504C00A005002FB583030E882370B5134E0122E3
:10505C0003FB0066002386B0CDE904230F220193E5
:10506C00CDE9023214234FF4A0720D4D0D4903FB10
:10507C000055044602FB00110B4B3046009500F026
:10508C00C1FB337C2C7423F004033374074B0134C1
:10509C0003EBC423EE606B6006B070BD1805002FE7
:1050AC009C09002FE818002F6981030EE810002FCF
:1050BC007FB50020FFF750FF2A4B03F5006282F307
:1050CC00088883F30A880024E023274D85F82230D2
:1050DC00EC772C766C76AC7685F820406B6A43F4D2
:1050EC00E0236B6285F82340FDF7A2FDFDF7CAFEB5
:1050FC004FF0FF33AB62EB62FEF7D2F8FDF746FFE1
:10510C00FCF7A2FF194800F0E7FBFEF7BDF9012000
:10511C00FFF722FF0220164DFFF71EFF00F0A4FD43
:10512C00144B4FF400625D61134B1449059301233A
:10513C002846CDE90343CDE90144114B009400F01E
:10514C0061FB06462B7C284623F004032B7403F0EA
:10515C0008F92046FFF778FF31462846084AFDF744
:10516C0071FE00BFE810002F00ED00E02806002FB4
:10517C00A005002F9C09002FD4AA030E281A002F7B
:10518C00954F030E38B5064C064DAC4201D30020AA
:10519C0038BD2046D4E9011202F0D8FF1434F4E7EC
:1051AC003403002F3403002FF7B50D4604469DF849
:1051BC002010EFF31187202080F31288BFF36F8F3C
:1051CC00266AE068864240D22668B4421AD0CEB134
:1051DC00304602F0CEFF06F1180003F0AFF9294675
:1051EC00002554F8082F706903F052FA3046C6F8BF
:1051FC00805003F0B6F82046394603F0E5F828460F
:10520C0003B0F0BDA268A9B12946E06903F040FAE9
:10521C00E369A26813446269E361934201D1236993
:10522C00E3610020236A0133236287F31188BFF303
:10523C006F8FE5E7A06923692946984208BF60692A
:10524C00801AA06103F024FAEBE752EA03010BD0B9
:10525C00074904F1080089684D61CDE900233946FE
:10526C00224600F021FCCBE76FF02200DDE700BF07
:10527C009C09002FF7B504460846EFF31186202150
:10528C0081F31288BFF36F8F216A00293BD0A2688B
:10529C00A16903F0FDF9A369A2682568134462694A
:1052AC00A361934204BF2369A361236AAC4203F157
:1052BC00FF33236236D02846002D34D0002702F06D
:1052CC0058FF05F1180003F039F96969A268E06923
:1052DC0003F0DEF9E369A268284613446269E361CE
:1052EC00934204BF2369E361236A01332362C5F847
:1052FC00807003F036F804F10800314603F064F8CE
:10530C00384603B0F0BD52EA030111D00A4989684E
:10531C004861CDE900233146224604F1080000F033
:10532C00C3FBEEE7002086F31188BFF36F8FE8E72D
:10533C006FF02200F7E700BF9C09002F2DE9F34125
:10534C00044617461E46EFF31188202383F3128878
:10535C00BFF36F8F304BC2689B6872B18068984204
:10536C0017D057EA060216D188F31188BFF36F8F56
:10537C006FF00F0002B0BDE8F08193F90E1001320E
:10538C002161C4E9023288F31188BFF36F8F0020CA
:10539C00F0E72169F3E793F90E1090F90E3099427A
:1053AC0030DA9942A8BF194602F0F7FE05462246AC
:1053BC004146CDE90076194800F076FB0028E6D08E
:1053CC00EFF31186202383F31288BFF36F8FA0684D
:1053DC00D0B1236821699C420AD04BB193F90E30AD
:1053EC009942A8BF19466FF07F039942B8BF19467E
:1053FC0002F0D3FE40B13146084802F0E5FF6FF0F1
:10540C000A00B7E70025D2E7002DF4D186F3118806
:10541C00BFF36F8FF3E700BF9C09002FE109002F4A
:10542C00F8B583680546002B40D0234A9268934216
:10543C003FD1C368012B03D9013BC3600020F8BDE9
:10544C00EFF31187202383F31288BFF36F8F016969
:10545C00806802F0A2FE2C68A54207D10023C5E9A2
:10546C00023387F31188BFF36F8FE7E7002CF5D079
:10547C00D4E90032002613605A60237CC4E900662C
:10548C0023F002032374A66004F1180003F056F80D
:10549C00AC6094F90E3020462B61C4F8806002F0A9
:1054AC0060FF3946054802F08FFFC7E76FF0150023
:1054BC00C5E74FF0FF30C2E79C09002FE109002F30
:1054CC0070B5EFF31186202383F31288BFF36F8F2F
:1054DC000468A0421BD0D4B1D4E90032002513607B
:1054EC005A60237CC4E9005523F002032374A560A1
:1054FC0004F1180003F022F82046C4F8805002F0A2
:10550C0030FF3146BDE87040064802F05DBFD0E97F
:10551C0002329A4218BF0133836086F31188BFF3BD
:10552C006F8F70BDE109002F13B5EFF311812024AB
:10553C0084F31288BFF36F8F846844B1013C84609C
:10554C0081F31188BFF36F8F002002B010BD52EAB7
:10555C00030406D181F31188BFF36F8F6FF00F0036
:10556C00F3E7CDE900230246014800F09DFAECE791
:10557C00E109002F2DE9FF4104462027534EEFF39C
:10558C00118887F31288BFF36F8FD4F88C50F5B95C
:10559C00022104F1A40002F01BFE002870D004F1DB
:1055AC009C0500220121284602F05AFF0028F8D160
:1055BC0000234FF0FF3202934FF0FF334146CDE909
:1055CC000023434804F1940200F078FCD7E7D4F8A8
:1055DC0090202B689542C4F88C3008BFC4F89030EA
:1055EC00D4F8A43043F00203C4F8A430EB6823F0E1
:1055FC00040343F00103EB606B6888F31188BFF37D
:10560C006F8F28469847EFF3118887F31288BFF302
:10561C006F8FEB68D80623F001023ED4EA60EB688A
:10562C009A0717D5306823F00203EB6090B1002184
:10563C00036878B1426895423DD10368002934D1A2
:10564C0072683360904200D17360002340F8083BCD
:10565C00FFF736FFD4F8A43023F00203C4F8A430CB
:10566C00DB0530D4D4F88C30003B18BF012388F311
:10567C001188BFF36F8F002B81D000F0FDFA7EE70D
:10568C00D4F8A430D90693D5C4F8A40088F31188B3
:10569C00BFF36F8F04B0BDE8F08123F01103EB6012
:1056AC0005F11000FFF70CFFB9E70B607368984227
:1056BC0008BF7160C9E701461BB11A68184613464A
:1056CC00B7E71A46FAE70023D1E700BFBC09002F61
:1056DC00E109002FF8B5C36804469A070E46C3F3D8
:1056EC00400542D45F0742D40B680BB983680B604A
:1056FC00E368D80742BFA36802253360376858BFF8
:10570C00012557B31B4B9A68D7F888309A421ED1A3
:10571C0002F0E4FD80F00100C0B2D7F8A430D90744
:10572C00C3F380021CD5F2B1F8B100232360D7F883
:10573C00903073B9C7E92344384602F054FDE3684E
:10574C0043F00403E3603368A3602846F8BD0020EF
:10575C00E3E71C60C7F89040EEE76FF0150506E034
:10576C006FF0120503E01B07DFD56FF00F05002368
:10577C003360EAE79C09002F0146014802F089BD1D
:10578C00D006002FF0B50446002089B00E9DC4E968
:10579C00230004F19400C4E9250004F19C00C4E941
:1057AC00270055B32879002840F2011008BF0120CA
:1057BC00C4F8A40000204FF0FF364FF0FF37CDE9BE
:1057CC000330CDE90100CDE9066720460C4B00946F
:1057DC0000F056F855B1296811B1204602F084FD4D
:1057EC006B791BB1A38943F00103A381204602F01E
:1057FC0017FEC4F8884009B0F0BD0120D8E700BFFF
:10580C008155030E2DE9F043984685B000F15803FD
:10581C00C0E91633109B002683810423073222F043
:10582C00070503740F9B01EB05090F46837349466B
:10583C00C0E906668660C6730446FCF701FF0E9B42
:10584C00073020F007002067C4E91A7502930D9BFE
:10585C00A9EB000901930C9B4A4600933946434639
:10586C002046FDF7D3FA054B66659B6803B15B6F69
:10587C004846636705B0BDE8F08300BF9C09002F64
:10588C00F0B5002587B00595109DDDE912760495DD
:10589C000F9D044603950E9D02950D9D01950C9D43
:1058AC000095FFF7AFFFB6F1FF3F08BFB7F1FF3F21
:1058BC0005D056EA070305D1204602F0B1FD20467B
:1058CC0007B0F0BD3A46334604F11800014900F028
:1058DC00B5FBF4E7B583030E012303748381002326
:1058EC00C0E91A334367014B986070479C09002F3D
:1058FC006FF00A01094A9368C3F880100849D86709
:10590C004B6843F080534B60002383F31188BFF343
:10591C006F8F9368D3F88000704700BF9C09002FED
:10592C0000ED00E070B590F91020037C002A2FDB0D
:10593C00D9062DD11A4C63F07F032246037452F81A
:10594C00183FE169934207D1C0E900210860E0618A
:10595C000FE09942F8D01B68002BF5D093F90E603C
:10596C0090F90E50AE42F4DD5968C0E90031086080
:10597C005860A569954200D005B9E568A3681A7C02
:10598C00D20606D1DA897F2A03D9AA690AB96361DA
:10599C0070BDAB4202D0284600F0D2FA6561F7E741
:1059AC009C09002F38B590F910200146002A037C81
:1059BC0004DA03F07F03037402F09BFC0D4D2A46BE
:1059CC0052F8184FAB68944200D004B9EC688B4283
:1059DC0007D01A7CD20604D1DA897F2A01D9A269B0
:1059EC002AB1A34202D0204600F0AAFA23466B61EA
:1059FC0038BD00BF9C09002FB3F1FF3F08BFB2F1C7
:105A0C00FF3F03D00249183000F018BB704700BFAD
:105A1C00B583030E034648B9EFF3058232B9064A43
:105A2C0051699268914201D0FFF762BF83F31188EC
:105A3C00BFF36F8F704700BF9C09002F38B5184C0F
:105A4C00A168E0690B68814214BF1A4600224968BC
:105A5C000B605960A368E1692AB9124AC3E90021B5
:105A6C000B60E3610AE092F90E5093F90E00854247
:105A7C0012DD5168C3E900210B605360A569094B25
:105A8C009D4200D005B9E568A3689D4202D0284626
:105A9C0000F056FA656138BD8A42DED01268DBE749
:105AAC009C09002FB409002FF8B5DDE906670D4BF2
:105ABC000C46986811460C4A1060EFF311822022B4
:105ACC0082F31288BFF36F8F9D68284602F023FC87
:105ADC00284632463B46FFF78FFF2046BDE8F8408C
:105AEC00FFF706BF9C09002FC409002FF8B5044628
:105AFC00EFF31187202383F31288BFF36F8F037C9E
:105B0C0049B203F01F02002A0CBF0126002635D132
:105B1C0003F07F032A4D037402F0EBFB2A46037C4F
:105B2C00817363F07F03037452F8183FE869934262
:105B3C0007D1C4E900200460EC610DE09842F8D074
:105B4C001B68002BF5D093F90EC08C45F6DD596817
:105B5C00C4E900310C605C60AC69944200D004B9BB
:105B6C00EC68AB689C4202D0204600F0E9F96C610D
:105B7C0087F31188BFF36F8F3046F8BD9B071CD598
:105B8C00856802F0B6FB81732B689D4209D16B6866
:105B9C00C4E900531C606C60EAE76A689A42F6D06C
:105BAC001B68002BF3D093F90E208A42F5DD5A685E
:105BBC00C4E9003214605C60DAE78173D8E700BF97
:105BCC009C09002F034648B9EFF3058232B9064A07
:105BDC0051699268914201D0FFF78ABE83F3118814
:105BEC00BFF36F8F704700BF9C09002FEFF311813B
:105BFC00202383F31288BFF36F8F054B9A68D37BF6
:105C0C00013BD37381F31188BFF36F8F704700BFD3
:105C1C009C09002F70B5EFF31186202383F31288B3
:105C2C00BFF36F8F0F4DAB68DA7B0132DA732A4604
:105C3C0052F8184F944200D004B9EC681A7CD20682
:105C4C0004D1DA897F2A01D9A2692AB19C4202D0F7
:105C5C00204600F075F923466B613046BDE8704074
:105C6C00FFF7D8BE9C09002F024B03F11802C3E9C1
:105C7C00062270479C09002F70B5EFF31186202384
:105C8C0083F31288BFF36F8F1A4CA168E0690B681D
:105C9C00814214BF1A46002249680B605960A36800
:105CAC00E1692AB9144AC3E900210B60E3610AE0F7
:105CBC0092F90E5093F90E00854216DD5168C3E936
:105CCC0000210B605360A5690B4B9D4200D005B9B8
:105CDC00E568A3689D4202D0284600F031F9656161
:105CEC003046BDE87040FFF703BE8A42DAD0126836
:105CFC00D7E700BF9C09002FB409002FF8B550EA74
:105D0C00010306460C4603D1FFF7B6FF0020F8BD91
:105D1C00EFF31187202383F31288BFF36F8F124D9B
:105D2C00124BA8681860FFF73DFEA8682346324660
:105D3C000F49183000F082F9AA680446137C3846E3
:105D4C0043F004031374FFF7D3FDAB68D3E90A23C4
:105D5C00B3F1004F08BF002AD8D102F024FC201A5E
:105D6C0020EAE070D3E700BF9C09002FC409002F84
:105D7C00B583030E014B9868704700BF9C09002F38
:105D8C002DE9F84304468789EFF31186202383F32A
:105D9C001288BFF36F8F037C190705D586F3118822
:105DAC00BFF36F8FBDE8F883D90943F008026FD1B8
:105DBC000274A36813B1204602F0A3FA04F1180090
:105DCC0002F0BCFBA56D04F15808A84511D04FF0AA
:105DDC00000975B1284602F094FA05F1180002F09A
:105DEC00ADFB2846C5F88090FFF79CFDA56DA84536
:105DFC00EFD1DFF8BC80D8F808309C4250D1EFF3DB
:105E0C000589B9F1000918BF4FF00109D8F81850ED
:105E1C00284A954200D00DB9D8F80C50AB4202D0AC
:105E2C00284600F08DF82046C8F8145001F01EFCEE
:105E3C00B9F1000F02D02048FFF74EFDD8F808301A
:105E4C009C4230D1EFF305836BBBA289D20711D5ED
:105E5C0086F31188BFF36F8F83F31188BFF36F8FB5
:105E6C000423184602DFEFF31186202383F31288F4
:105E7C00BFF36F8F3046FFF73BFDFB0792D5002336
:105E8C0083F31188BFF36F8F0423184602DF89E771
:105E9C0003F07F0343F00803037402F02AFA88E747
:105EAC004FF00009B2E786F31188BFF36F8FE4E778
:105EBC009C09002FB409002F2806002FD3B5DDE96B
:105ECC000667089CCDE90067FFF7EEFD1CB1034B9C
:105EDC009B685B69236002B0D0BD00BF9C09002F9A
:105EEC00027C034612F01F0210D10A4988420DD0E1
:105EFC000949086868B1D9897F2909D893F90E2016
:105F0C00064B1B689A42B8BF0020704700207047B0
:105F1C00104670471805002F0403002FC809002FE6
:105F2C000122044BC01A044BC0105843034B1A54A3
:105F3C00704700BFB006002FABAAAAAAE109002F38
:105F4C0070B50C4B0C4D1E7CFFF7CAFF182303FBDE
:105F5C0006550446284602F0F1FA0022074B9A55E2
:105F6C003CB1621E2846BDE870400549D31700F0CD
:105F7C0065B870BD9C09002FB006002FE109002FF9
:105F8C002D5F030E38B5EFF31185202383F31288B0
:105F9C00BFF36F8F0F4B104A9C681068A04206D15C
:105FAC00FFF7CEFF85F31188BFF36F8F38BD00214B
:105FBC001B7C1160094AD35C002BF3D02046FFF701
:105FCC008FFF0028EED0237CDB0601D1FFF736FDD6
:105FDC002046E5E79C09002FC409002FE109002F9A
:105FEC00024B1868984208BF002070470803002F26
:105FFC00034B1B680BB9FEF73BB80020704700BF82
:10600C00CC09002F30B570B10B4B5B6898420AD0AD
:10601C00036843B1D3E90421D0E90445121941EBDB
:10602C000501C3E90421D0E9003213605A60002352
:10603C00C0E9003330BD00BF0803002FB3F1FF3FB0
:10604C0008BFB2F1FF3F2DE9F84F044699461546BB
:10605C001F467AD08160EFF31188202383F31288D6
:10606C00BFF36F8FB9F1000FDFF8E4A020DBFFF76F
:10607C00BFFFDAE90027013549F100092D1849EB7A
:10608C00E07306464FF00109C4E90453AD1843EB25
:10609C000707FFF7A5FF0346DFF8B8E0DEF804A01A
:1060AC00EBB9C4E900EACAF80040CEF8044028E095
:1060BC006FF00103DAE900125B1A4FF0FF3161EB6C
:1060CC0002025B1B62EB0902012B72F10001BCBFE7
:1060DC00012300224FF00009C0E90432D9E7D3E9CB
:1060EC00041CD4E904208A4270EB0C0B24DA891AC4
:1060FC005A686CEB0000C3E90410C4E90032146068
:10610C005C60FFF76DFF84420ED1134B1B685BB9CB
:10611C00B9F1000F02D1FFF76BFF0646304602F0D3
:10612C00F6F90021FDF7B8FF88F31188BFF36F8FE4
:10613C0028463946BDE8F88F521A60EB0C005345DF
:10614C00C4E90420ADD01B68AAE700252F46EFE771
:10615C00C806002F0803002FCC09002F2DE9F047AB
:10616C00DFF8A8900246C9F800000D46FFF738FF8B
:10617C0000260027DFF898804FEAE27ED8E900136A
:10618C0050B1D0E9044CA2427EEB0C0A1ADAA41AE4
:10619C006CEB0E06C0E904460024521843EB0E03C8
:1061AC002046C8E90023C9F8004002F0B0F92146A6
:1061BC00FDF772FF85F31188BFF36F8FBDE8F047D1
:1061CC00FFF7E0BE611843EBE473C0E90467C8E96C
:1061DC000013FFF717FF01224FF00043C0E904231F
:1061EC0085F31188BFF36F8F83689847EFF31185A0
